:020000040800F2
:10000000E02E0020A14501084542010847420108B1
:10001000494201084B4201084D420108000000001E
:100020000000000000000000000000004F42010836
:1000300051420108000000005342010855420108E6
:10004000BD450108C145010859420108C5450108DF
:10005000C9450108CD4501085F4201086542010814
:10006000D1450108D5450108D9450108DD450108FC
:10007000E1450108E5450108E94501086B42010831
:10008000ED450108F1450108F5450108F94501086C
:10009000FD45010801460108054601080946010819
:1000A0000D460108114601081546010819460108C8
:1000B0001D46010821460108254601082946010878
:1000C0002D46010831460108354601083946010828
:1000D0003D460108714201084146010845460108B4
:1000E000494601084D46010877420108514601087A
:1000F00055460108594601085D4601086146010858
:1001000065460108694601087D4201086D460108FF
:100110007146010875460108794601087D460108C7
:100120008146010885460108894601088D46010877
:1001300091460108954601083EB5DFF85C4B02F098
:1001400005FD6061684602F0B9FDDFF8500BDDE99E
:10015000002300F54E71C1E90023256845F0100524
:100160002560D0F8480300281EBFC06800288047DB
:100170000DF10C0DBDE8304000A328E04D414320B7
:100180007478446F6E650D0A000000002DE9F0419F
:1001900004460D4616469846DFF8FC7A02F0D6FC77
:1001A0007860BC60BD81FE8187F810803868DFF818
:1001B000EC1A40F008003860D1F8480300281EBF50
:1001C000C06800288047BDE8F04100BF02A30122BB
:1001D0000021022002F0DDBD4D4143207278446FC2
:1001E0006E650D0A0000000080B5DFF8AC0A0168FA
:1001F00041F004010160DFF8A40AD0F848030028A8
:100200001EBFC06800288047BDE8005000A3DEE79D
:100210004D414320747854696D654F75740D0A0023
:10022000DFF8740A016841F002010160DFF86C0A2E
:10023000D0F8480318B1C068002818BF00477047BD
:1002400080B5DFF8540A016841F001010160DFF870
:100250004C0AD0F8480300281EBFC0680028804719
:10026000BDE8005000A3B2E74D41432072785469C5
:100270006D654F75740D0A00DFF8240A416891F826
:100280007C20022A14BF06210221017070472DE94B
:10029000F84301F08BF88AB000F048FC01D001F07F
:1002A000D3FC04F56C7604F560753168284602F0DD
:1002B000F8FB284602F08FFB04F566757168284646
:1002C00002F0EFFB284602F086FBD4F8840490F895
:1002D0007C1004F2144502291CBF2A78012A0FD190
:1002E00016218DF8181006A901F0B2FF716804F507
:1002F0007E774118384602F0D4FB384602F06BFB9B
:10030000DFF89409D4F884244169C2F85011406997
:10031000697802908DF8041008A802F0E5FCD4F882
:10032000840400F5AC71DDE90889D1E90067009724
:10033000334641464A4608A802F07FFCDDE9080141
:10034000CDE9040101228DF805206968D4F88424E0
:10035000039192F8640110B900218DF8051001A9EC
:10036000107802F071FE287810B9002184F83D144D
:100370000BB0BDE8F08310B5DFF82049D4F8400396
:1003800094F8141440F08000C4F84003012904BF1D
:10039000002000F0A8FB94F8810440F0220084F8CB
:1003A0008104BDE8104067E72DE9F84FA0B0DFF801
:1003B000ECB8DFF8E4088689B0F90E10D0F808A090
:1003C000ADF800100BF58F6490F91010BDF8000027
:1003D0008DF80C100022E16804920BF21447CA6CED
:1003E000F88201218DF80D1007920BF58769207AAC
:1003F0009DF80C10DFF8AC287876002589F80850B5
:1004000039767D817D733D61BD82BD76FD613D7232
:100410003D6289F80050D06A80470BF5667002F0A3
:1004200015FB3146504603F0A0F9012807D1BDF86D
:1004300000009DF80C10A9F83E002170EFE1E06883
:1004400090F87C10012917D103F093F9012807D106
:10045000002003F083F9002003F085F904200AE06E
:1004600003F089F9012807D1002003F078F9002072
:1004700003F07AF9052078769AF800804FEA581050
:1004800001280BF50E7B07D003286DD0052869D015
:10049000072800F09881A9E1102E40F3D380E1688D
:1004A000CDF858A08DF85C6091F86401002840F008
:1004B000C98003F026FB014616AAFF2003F04FFD7A
:1004C000002845D1E1689DF8610088649DF86220AC
:1004D00040EA022088649DF8632040EA0240886474
:1004E0001998C8649DF86800C0F3021081F8A5004F
:1004F00000F0A3F981F8AC0000F09FF981F8B40096
:100500009DF8690000B901204FF47A714843E16811
:1005100001F19402106000F57A705060A6F11102AA
:1005200081F862518DF854200DF16A01E26814914E
:1005300014A9107802F02EFEE168022081F864010F
:10054000012003F0E8FE01280BD10121002006E084
:10055000012003F0E0FE012803D10121072003F070
:10056000A9FE47E101203872E26897F90C3002F1E8
:10057000B90108788DF816008DF815300D208DF82A
:100580001400487C012804BF0E218DF81410107847
:1005900005A902F02DFDA6F10D0300211BB2994221
:1005A000B8BF194600B28842A8BF0C2E4ADBFF2113
:1005B0008DF84810CDF820A08DF82460CDF844B017
:1005C00008A803F041FF00283CD10A9B9DF82C109D
:1005D0003B6211F00F0F1EBF9DF84000002800265F
:1005E0000DD19DF8480008B9012608E011F00F0F61
:1005F00028D19DF8400000280CBF02260326E2689F
:10060000049502F1540EDEF80000984202BF02F198
:1006100052000378012B17D140788DF80D00012589
:10062000DEF81C3018680490DEF80000079092F89D
:100630007C00022804BF03237B76032E08BF11F041
:10064000600F01D0012048E015208DF8140005A9A5
:1006500000F0E7F980B2009004A902910DF10E02BA
:10066000E068019200F5B0710B689DF80D0008AAD2
:10067000314600F05FFA0DF1480AF8B1072814D1AD
:10068000E1680820787201F24B12D07D002804BF87
:100690004FEA5810052802BFD1F86801DAF80410B3
:1006A000884208D10120107005E0082807BF0A2001
:1006B0007872012179720498F8610FE008A800901F
:1006C000049B9DF80E2007999DF80D0003F0E2FCB5
:1006D00038B102280CBF0B200C207872FFF74BFEBC
:1006E0009DE0787200229DF82C003A75C0F300114D
:1006F000797340090021396100F001000499B8764E
:1007000089F80800F9610021787EBD7289F805102A
:10071000002812BF0128E268C2F880100DB1022142
:1007200013E0E2684FEA5813052B02F24B1109D18E
:1007300001230B70C97D19B9DAF80410C2F86811E9
:10074000012102E000220A7000213972030099F8A9
:1007500004109DF82C2018BF012806D1012906BFDE
:10076000C2F34010002803F06EFF032E22D8DFE80A
:1007700006F00205081600F055F810E000F052F8F7
:1007800009E0787E9DF90C309DF84820009000210A
:10079000119800F089FA9DF84000F8720EE09DF87B
:1007A0004000F87201211198386179759DF8480070
:1007B000387503E001207872FFF7DDFD607A40F0C4
:1007C0000200607216E0721E92B20AF101015846F0
:1007D00003F0D4FF03203872701E617A7D7241F0FD
:1007E0000201C7F810B03875617203E00120787219
:1007F000FFF7C1FD3878012803D199F808000128D6
:1008000003E0E06890F87C10022904BF002000F0AB
:100810006AF9607A40F020006072FFF72DFD21B088
:10082000BDE8F08F787E9DF82C209DF90C3000906B
:1008300002F00F0200210CA836E2E1689DF8680082
:1008400000F00F0070472DE9F041DFF8504404F547
:10085000906506466868884690F87C100027022953
:1008600001D001F0F1F902F082FF012806D1022047
:1008700002F073FF002002F075FF0127686890F80E
:100880007C10012915D102F074FF012806D1002047
:1008900002F064FF002002F066FF012702F06BFF08
:1008A000012806D1002002F05AFF002002F05CFF70
:1008B00028E03FBB94F814142878A0B9012908BF98
:1008C00084F83D64304603F013FD6868D0F85001A9
:1008D00002F044F9D4F8B413884213D304F56670D7
:1008E00002F0B4F80AE0012908BF84F83D844046CC
:1008F00003F0FEFC686800F019F903D0687840F056
:1009000020006870BDE8F041B6E4FEB5DFF88C4326
:1009100094F88114C80725D504F23C4600233078AA
:10092000002818BF032804F582651FD1D4F8840479
:100930002A7890F8A4309A4267D2C1F3400131B1CD
:1009400090F87C0000281CBF687F00285DD094F8D8
:10095000810400F0DF0084F881040021E9700020A8
:1009600000F062F8F7BD002B4FD1F0E70128EED17F
:10097000E8780128F6D16F7895F802C0BC4505D219
:10098000C1F3400018B13079012800D10123D4F817
:10099000842492F862010028E5D10BBBBC45D6D275
:1009A0000CF10100A870C1B201EBD1704008A1EBBD
:1009B00040000128CBD122208DF8000002F1A401D3
:1009C000087D8DF8020002F17C01487A8DF8010063
:1009D000694600F026F8D4F8841481F88500B6E75B
:1009E000307910B186F805C00FE002208DF80400C0
:1009F000DFF8C41C886800906946107802F04CFB50
:100A0000002028713071A878707104F55A7002F0D6
:100A10001DF800F029F800F0D3FFF7BD8DF80400B1
:100A200001A9107802F0E4BA10B501F0A6FF00F0B9
:100A30001BF8012000F0BFFC002818BF0B2812D0C3
:100A4000D4F8841491F8852094F8121404F23D40EF
:100A50004270092201710270092003F049FCBDE8CF
:100A6000104000F0ADBF10BDD4F8400320F02000CE
:100A7000C4F840037047894890F81524D0F88434AE
:100A800000F56E7100F560700A7093F9A520CA70C8
:100A900093F8B9200A7493F8CA204A7400234B8251
:100AA00000F0C4BD7D4A02F590631878002800D19B
:100AB000704710B502F5737192F815045C68087000
:100AC0000023D4F8A800486094F8B900087494F89A
:100AD000CA0048748B740120C87402F56670BDE8C2
:100AE000104000F0A3BD10B56C4C04F57E7001F011
:100AF000ADFF04F213404178012904BF01220270C6
:100B0000D4F8840400F012F805D194F8810440F080
:100B1000200084F88104D4F8480300281CBFC06872
:100B2000002802D0BDE81040004710BD90F87C10AE
:100B30000229704738B5002A1CBF059C002C1D46B1
:100B400001D0069B0BB90A2032BDB8B1012817D1DC
:100B500000959DF8020001280DD108001ABF032955
:100B60000120022020700499D289207801B0BDE8CC
:100B7000304003F074B903212170F4E70420F1E759
:100B8000052032BD454970B501F214440646226F76
:100B9000444D92F87C3003201BB1022B59D04FD327
:100BA00070BD330007D102F1A801B032D1E9004590
:100BB000C2E9004570BD012E09D1012002F0E2FD1D
:100BC00001004DD1226F012182F87C1070BD022EF0
:100BD00046D1022082F87C0001F57876304601F596
:100BE0007371142203F0EAFD0220F0740020216FDB
:100BF0002C2242430A4492F85230012B08D0401C68
:100C0000F6DD00202070E96A884700F02CFD26E020
:100C100002F16800026841F8B02F0079087161782C
:100C2000206F3170D0F8B010716090F8B910317445
:100C300090F8CA10717403200121F074B174E0E7D8
:100C4000304602F09FFD01000AD1216F81F87C60DF
:100C500070BD2EB9002082F87C00E96A8847002028
:100C600070BD1CB50D49D1F8842402F1B8031C787D
:100C70008DF802408DF801000D248DF80040997C1C
:100C8000012904BF0E208DF800001078694602F09B
:100C9000AFF9C0B216BD000050260020440300206A
:100CA000C4070020484001082DE9FC4F89B00446E4
:100CB0000F460020DFF8641DDFF8645D8DF8080042
:100CC0008246ADF80A00089115E0696814F808003A
:100CD00001F1B80200F00F0010740122696891F967
:100CE000C8008240A1F84C21374600220DF10A01CC
:100CF000042003F02FFC9DF82410F8B2884280F005
:100D000045825FFA87FB14F80B0003F0FBFC9DF8AB
:100D1000241058448142C0F2398214F80B00DFF8E5
:100D20003C9D7F1C7E1C801E11285FFA87F8E6D848
:100D3000DFE810F01300250012008900C600DD0076
:100D40000B0120016A012C022C027B012C022C02D7
:100D5000CD01DD01F8011002B7E7042003F0DBFA52
:100D60000128C8D1042100F03CFA089914F80800C1
:100D70000870F1B20898625C4270771CBBE70021F2
:100D8000BAF1000F8DF80E10ADF80C108DF80910A7
:100D9000B1D104EB0800411E9DF824000591C01B51
:100DA000401C8DF818000DF10D036E6806F17E00F1
:100DB0004FF0010A01788DF81A1096F8B8108DF8E6
:100DC0001910C1798DF81B1006F1940180798DF806
:100DD0001C000DF109000A7C8DF81D2006F5B0718C
:100DE0000A68019003A9049200910DF10E02307877
:100DF00004A902F0D5FA00F0D9F90ED169689DF87E
:100E00000E0081F8850069689DF80D0081F8840066
:100E100069689DF80C0081F8A4004FF0000906E015
:100E2000012202A9032003F095FB09F101099DF8B5
:100E30000900052190FBF1F15FFA89F28A42EFDBAC
:100E4000401EC71957E707218DF80810771C14F8C2
:100E50000800000900F007008DF80100F0B214F856
:100E6000081001F00F018DF8001000F0A5F902F054
:100E7000DBFA00F09BF914D169689DF8000081F855
:100E8000AC0069689DF8000081F8B4006868019AB8
:100E900000F1A8010A60019B8B609DF8011080F8A9
:100EA000A51001229DF808008DF80A000DF10A0135
:100EB000052003F04FFB687840F0100068701AE7D7
:100EC000D9F84803FF2100281CBF0068002801D082
:100ED000804701469DF928008DF80A1000F03F0078
:100EE0008DF80B0002220DF10A01062001E7032014
:100EF0008DF8080003AB14F908208DF80420F0B237
:100F00000093771C225C0392F9B21046625C7F1C4E
:100F100040EA0220F9B203907F1C625C40EA024082
:100F2000039001466420414303910022F8B20492E9
:100F30007F1C215668688DF814106946007802F00D
:100F40009DFA00F051F90720D3E614F808106A68FA
:100F500011F00F0108BF01214FF47A70414342F8AC
:100F6000941F374601F57A71516000220DF10A0194
:100F700008209EE714F808100022ADF8002088062B
:100F800044BF01228DF80120C80644BF01228DF81C
:100F90000020686801F00F018DF8021069460078A2
:100FA00002F096FA10F1010F374688D069689DF873
:100FB000000081F8B80069689DF8010081F8B90067
:100FC0009DF8021073A06E68405C06F1B80803F04B
:100FD00001FCC8F8040002228DF80C2098F80010DB
:100FE0008DF80E1003A9307802F002F8696891F9C3
:100FF000852043B29342B8BF104681F88500002295
:101000000DF10A01092074E603218DF80810F0B2F1
:1010100014F808208DF80020771C00F0CDF802F0BD
:1010200081FA00F0E1F80A2043E70A2003F073F99F
:1010300001284BD10A2100F0D4F800BF59A2F3B225
:10104000D2E90001CDE9030114F80820E05C42EA8E
:101050000022771CF8B27F1CFBB2215CE05C7F1C95
:1010600042EA0142F9B242EA0062605CDFF8E01B4A
:101070004FF47A7310FB03F31B128A18ADF810308B
:10108000039205A801F01AFE09F54E727F1CD2E901
:1010900000010346DDE9030600913246014603A83C
:1010A00001F0CBFDDDE903010346DDE90506009112
:1010B0003246014603A801F0A1FDDDE9030101F07C
:1010C000E0FD02F069FB012089F8380413E60D20E9
:1010D00003F021F90128F9D10D2100F082F82878D8
:1010E000042818BF052801D002F052FB03E6F0B235
:1010F000771CFBB214F80810225CE05C7F1C41EA0C
:101100000221FAB241EA0041A05C642200F00F0023
:10111000514302F03EFB8DF80A007F1C00F068F896
:101120001120E6E50E2003F0F6F8012811D10E217A
:1011300000F057F8F1B214F80800625C40EA0220AF
:10114000771CFBB2DFF80C2BE15C526802F023FB4A
:101150007F1CD0E5F1B2771CFBB214F80800625C8A
:10116000E15C40EA022040EA01406421484302F089
:1011700014FB7F1C012807BF01218DF80A100022F3
:101180008DF80A2000F034F81320B2E50BB0BDE86A
:10119000F08F0000080A0C0D0E10121415181A1BFF
:1011A0001D1E212400000000000000008DF8080032
:1011B00000F0070007287047215C0191F8B27F1CFE
:1011C000225C41EA0221F8B201917F1C225C41EAD3
:1011D00002410191642041436868019169460078A9
:1011E0007047002003F066B88DF808008DF80A00FB
:1011F00001220DF10A0170472DE9F84FDFF85C98E4
:10120000D9F884C40CF17C0E88B09EF909B09EF91F
:101210000880DEF8044002940CF5AA752C7C0CB909
:10122000072074E00CF1B8073C7C0CB900262E6056
:1012300000258DF804509EF80260F6018DF80460D8
:101240009EF80050012D9DF8045008BF45F0100590
:101250008DF804509CF84B51012D05D19DF8045098
:1012600045F020058DF804500E4682460CF5B0700E
:101270009DF8041015461C4602680392C909012313
:101280008DF811108DF8103002ABDEF804100591C6
:1012900009F57D710A884988ADF81A10ADF8182053
:1012A0009EF809108DF81C109EF808108DF81D107E
:1012B0000CF185013A788DF81E200CF184029CF81F
:1012C00000008DF81F0003A803F0F1FA9DF8041048
:1012D000009401F0BF0141EA80118DF804102B4603
:1012E000324601A9504600F0E9F9040018BF0A2867
:1012F00004D1129800F05FF8040009D0D9F88404F2
:1013000080F885B0D9F8841481F8848020460EE1F5
:10131000D9F88404002180F84B11029AC0F880208B
:1013200003F080F90028F1D01320F0E738B500F081
:101330003DF890F9852000F1A50191F90030097D73
:10134000007802F0B3F9D4F8845405F1880104F56B
:101350006E7200920B680A7941B2287801F06CFF36
:10136000D4F8840400F1880104F5737200920B68CC
:101370000A7990F9AC10007801F05EFFD4F884048B
:1013800004F56C7100F194034A691C6814190C602F
:101390005D688C6A65194D6090F8640128B9986899
:1013A00012180A60DA68A4184C6031BDDFF8AC4648
:1013B000D4F8840470472DE9F04F89B0064602F056
:1013C000D6F9012801D10E20B1E0DFF8904604F5EE
:1013D0008365E86E90F87C10012909D102F0C9F903
:1013E000012803D002F0C7F9012801D10F20EBE753
:1013F000E96E01F5A671886820B928680A88424319
:10140000101A886004F5827704F58470397821B168
:10141000042964D103F089FA01E003F050FA0028AE
:101420005BD1387A2080E86ED0F85411019190F8A1
:1014300085208DF80C2090F8C9008DF80E0007A8C3
:1014400001F052FCE86E00F5AC71DDE907ABD1E9C3
:101450000089CDF80090434651465A4607A801F04E
:10146000ECFBDDE90701CDE90401EF6E07F5A8719A
:1014700000230A688DF818300292012223888DF823
:101480000D20ADF81A30087D20B98DF81820002203
:101490008DF80D2007F5AA70009004F59163387857
:1014A00004F2154201A902F093F8010019D00B28AB
:1014B00008BF012E88D1296F69B1D4F8400340F0EC
:1014C0002000C4F8400304F55A74204601F0E9FAFC
:1014D000204601F080FA002076E7112074E703200F
:1014E00072E7FFF723FF0020E96E009091F8640196
:1014F000C0B1684603F0B9F808B1132064E7E86E9C
:10150000009E94F8377290F98500FFF7AAFBF6B2B7
:10151000F1198AB2904203D389B2B1F5807F01DB21
:10152000082051E794F8150400F068F94CE709B079
:10153000BDE8F08F7CB5FFF739FF0021002204F2EF
:10154000F23580F86411C0F88020A97704F21246C1
:10155000D4F8840472700121E977317080F8C820D2
:10156000D4F884040279A0F84C1180F88420D4F8CF
:101570008404417980F88510D4F8840490F825100B
:1015800080F8A510D4F8842402F12803A832D3E906
:101590000001C2E90001D4F8842402F13003B03222
:1015A000D3E90001C2E90001D4F8840490F83810AE
:1015B00080F8B810D4F8840490F8391080F8B91085
:1015C000D4F88404C26B00F1BC010A60006C48606E
:1015D0000021D4F88424B170002082F84B0101214D
:1015E00000908DF804106946107801F055FD002137
:1015F000F170002004F57371D4F884240870D2F8D7
:10160000A800486092F8B900087492F8CA004874BB
:10161000002201208A74C874142204F5787003F043
:10162000CDF8012102202970687073BD70B50C4699
:1016300001F00CFADFF8005C286B8047DFF81C042F
:1016400000F5906600F5846270680078214601F02C
:1016500031FE012806D17068696BD0F89000884788
:10166000E07C307070BDF8B5DFF8F04304F59065AC
:1016700004F578766868009600F188010B680A79AD
:1016800090F9B410007801F0D7FD04F2F23702208F
:10169000787001216868397004F5846200783146F9
:1016A00001F008FE012806D1DFF88C1B4A6B0020F0
:1016B000904778782870F1BD702500202DE9FC470F
:1016C0000F460A9EDFF89483002192461C46A8F834
:1016D000001088F814140191009104B90026054601
:1016E00008F59C7932462146484603F047F888F8C9
:1016F0003762287888F8020029784909022907D03A
:10170000042902D0072960D070E0012088F8140471
:101710003C4608F582770420387008F10201FF2268
:1017200079603A7208F588662878787208F59475B9
:1017300085F800A0706CC16CF960207898F83712B9
:1017400038742972C5F8049001A802F07DFB08B135
:10175000122026E0019878820021318068460199A4
:10176000B16002F082FF98B90098C8B1706C90F92E
:101770008500FFF776FA98F83712D1B100990F2952
:1017800011D808F58C7269460F2002F077FF08B176
:10179000132006E00098217860F30301217039746A
:1017A0000020BDE8F68700F023F80028F0D10A20D9
:1017B000F7E700F01DF80028EAD12870716C009856
:1017C000287201F1CB026A60EAE7002C1CBF98F88E
:1017D0003722002AE4D0214608F1030002F0CEFFB0
:1017E00098F83702401CA8F80000D9E70220D8E793
:1017F000716C01F1CB02694602F040BF2DE9F04760
:10180000964C86B004F2444700218DF8001005463E
:101810003E6C8DF8085006F184014FF0030A4A78B7
:101820008DF809200B7822888DF80A3004F583633F
:10183000886B0390C96B0491ADF814206A46307828
:1018400002A901F063FD04F23D4001213A6C0170F0
:1018500092F885109DF80020BD60417004F5826506
:101860008270A8683860386101F087FF012805D1CF
:10187000A86801F094FF08B1102047E0386C90F898
:101880007C10012908BF01F08CFF01F079FF386C52
:101890006E7990F8857004F58279002199F800003E
:1018A000019104F58478B8B1042834D101A802F07C
:1018B000CBFA10B14FF0120A2DE0287810B9A878B1
:1018C000022802DB0198401E0190434601983246EF
:1018D000394602F09DFB02E0404602F016FBC0B91B
:1018E00099F808002080D4F8400340F00200C4F8C2
:1018F0004003287910B92978491C2970A01CDFF809
:1019000038292188936AC9B29847002006B0BDE8FB
:10191000F0874FF0110A5046F8E73EB5040001D1B8
:1019200003203EBD4D4DD5F84003012801D00120D4
:101930003EBD216829B1626892B205F28C4002F086
:101940001DFF03218DF80410D5F88404A1680091CF
:101950006946007801F0A0FB05F5787095F815143C
:10196000D5F884240170D2F8B010416092F8B91013
:10197000017492F8CA104174012202218274C17468
:10198000A06901F0A3FF18B9206902F04CFA08B170
:1019900011203EBD206A02F0CEFD08B113203EBDED
:1019A000A06A01F0D4FE012801D014203EBD206BB6
:1019B00002F04AFC012801D015203EBD00203EBDAA
:1019C000264991F8810401F58262C0F3400020B1FC
:1019D000507F002818BF01280AD0D1F8840490F85D
:1019E0007E30012B04D1D0F880305B1CC0F88030F1
:1019F000002010701071D070D1F8400320F0020068
:101A0000C1F84003012070471449D1F8481319B1B7
:101A10008968002918BF0847704700009C0700200C
:101A2000C40700200020EFE70120EDE70220EBE7EC
:101A30000320E9E70420E7E70520E5E70620E3E7E0
:101A40000649D1F84003002804BF91F88204012818
:101A500001D100207047012070470000440300209E
:101A6000F0B587B0EFF3108072B67A490C680022A7
:101A70000A6080F31088DFF8345B05F5906605F5A1
:101A800082677CB3C4F3001008B1FEF700FCC4F316
:101A9000C00008B1FEF788FCC4F38000A8B17068EC
:101AA000FFF744F801D000F0CFF8FEF7E5FB022085
:101AB00085F83D0402F01CFC3879012804BF01219F
:101AC000F970707840F020007070C4F3400018B1D5
:101AD00006210520FEF7B7FEE00703D50421032009
:101AE000FEF7B1FE01F05EFE7078C0F340100028F2
:101AF00005F5507477D00020B0702068010644BF0F
:101B000020F082002060707810F0050F0ED00C20BD
:101B100002F001FC012802BF707800F005000428E3
:101B200004D1206820F0020020601DE07078C0F32E
:101B30008000B8B1012002F0EEFB012804D102F0D0
:101B4000C9FB58B9387009E0052002F0E4FB012810
:101B500004D0062002F0DFFB012803D1206820F02A
:101B600002002060FEF7D1FE95F88174206840BB2A
:101B7000F90744BF07F0FE0070707078C0F3800171
:101B800011B100F0FB0070700120F907B07004D5AE
:101B900061680A6805F23C409047C7F3800050B185
:101BA00005F58A6002F0C0FB02F0E9FB18B170781D
:101BB00040F00400707001F0E4FD707800F0DF0088
:101BC0007070206868B900218DF80010684602F036
:101BD00084FD9DF80000012803D1707840F01000CA
:101BE00070700120B0707078C0F3C00139B16168C5
:101BF00000F0F700707005F26440CA689047707892
:101C0000C0F3001068B107218DF800100022616850
:101C10008DF801206846CA689047707800F0EF00A0
:101C200070707078C0F3400139B1616800F0FD0058
:101C3000707005F21C404A6890473078022808BF4F
:101C4000FFF711FD07B0F0BDDFF8EC05C16A0847EA
:101C5000803DD512502600202DE9F841050091B0B5
:101C600016460CD00C001CBF2868002807D06868F6
:101C700000281CBFA868002801D0E86808B9032024
:101C800082E1304601F0AEF908B909207CE1DFF8C5
:101C90002019DFF81889284602F0C3FA08F28C47A9
:101CA0004FF4B6720021384602F080FD40F28C42BB
:101CB0000021404602F07AFDC8F88474012008F53E
:101CC0007D770021B87778770F22D8F884040670E2
:101CD00080F87C1080F8CA10DFF8D818C0F86011BE
:101CE0008DF8042001A900F0B3FA00B10120D8F862
:101CF000842482F8C9000A20FEF790FED8F88414E4
:101D00000871062000F09FFAD8F88414487110205A
:101D100000F099FAD8F8842410611120FEF77EFEB5
:101D2000D8F8842450611220FEF778FED8F8842475
:101D300090611320FEF772FED8F88424D06114203D
:101D4000FEF76CFED8F8842410621720FEF766FEBA
:101D5000D8F8841481F82500182000F074FAD8F817
:101D600084249062106301A919208DF80400FEF705
:101D700058FED8F8841481F82C0001A9D8F88424DE
:101D800082F834001E208DF8040000F05FFAD8F8C5
:101D9000841481F838001F2000F055FAD8F8841414
:101DA00081F83900202000F04EFAD8F88424D0635E
:101DB0002120FEF733FED8F8842410640B20FEF7B0
:101DC0002DFE388001A90C208DF8040000F03EFAA9
:101DD00078800120D8F8841481F824000A21D8F8EA
:101DE000840481600622027308F55076D8F88404D2
:101DF000826800F188010A60007B0871D8F88404C9
:101E0000026900F12401CA6643690B6782694A6767
:101E1000C3698B67026ACA670022097880F8A41038
:101E20008DF81820059205A9D8F88404007801F0EF
:101E300033F9FFF77FFBD8F88414DFF898390120D5
:101E400081F87D007560002008F28145012128702D
:101E50003160B4600021D8F8842402F5A8700160D4
:101E60004160009100224FF0FF3108F55A7000F0F8
:101E700099FD002000900022DFF85C394FF0FF311F
:101E800008F5607000F08EFD002000900022DFF861
:101E90004C394FF0FF3108F5667000F083FD0020EB
:101EA00000900022DFF838394FF0FF3108F57E70DE
:101EB00000F078FD07A800F017FFD8F88424DDE9CA
:101EC000070102F5AC73C3E90001DFF81809DFF878
:101ED0001819F0607161DFF81409DFF81419F06166
:101EE0003161DFF81009B06108F55370DFF848631D
:101EF00031688847DFF8000901F0C3FC88B9DFF8D2
:101F00004C0A01F064FF60B9DFF8440A02F004FBF8
:101F100008B1132038E0D8F88404503001F0D9FF1C
:101F200008B1112030E07069804702F007FCD8F852
:101F30008404B16D90F87D008847F06A80470021E5
:101F40000391049108F21C426168039108F2644114
:101F5000E06809910A9208F58A610B9104900C954A
:101F600009A8D8F884140E9101F14C020D9201F1E8
:101F7000840250310F92109103A9DFF8082A01F072
:101F8000E5FB01206870002012B0BDE8F081DFF8A9
:101F9000F8190020C1F840037047F8B5DFF8E839B8
:101FA0000C46D3F8841401F1800288B016680296BA
:101FB000054691F905708DF80070002791F90460CD
:101FC0008DF8016001970CB9032045E001F5B0766A
:101FD0000020376803978DF8100003F57D7091F8A5
:101FE0007E60038840888DF811601768ADF81A008C
:101FF0000597ADF8183002AB50798DF81C001079B8
:102000008DF81D000DF1010291F8B8008DF81E0049
:1020100003A809788DF81F10694602F048FC9DF965
:102020000000FEF71EFE607001A802F01EFB08B162
:10203000132011E0019810280BD261780A468242E1
:1020400007D3091A2170019949198A4203D3002044
:1020500002E000202070082009B0F0BDFEB5044663
:1020600000250CB90320FEBD2078DFF84065282844
:1020700000F2DB80DFE800F0151B2023262A2ED992
:10208000D9D9D9D9D9D9D932363B3D42474C575500
:1020900061666A6E7175797D86818A8E93CA9AD9D6
:1020A000CF00D6F8841491F87C002071C1E0D6F8F6
:1020B000840490F8641163E001F012FD3BE001F04C
:1020C00020FD38E000F0BAF88A7866E0D6F884049B
:1020D000816C9EE0D6F88404C16C9AE000F0AEF802
:1020E0004A785AE0D6F8840490F8CA1048E01D20D7
:1020F0001AE0D6F8840400F1A8010DE0D6F88404B3
:1021000000F1280108E0D6F8840400F1B00103E0F2
:10211000D6F8840400F13001D1E90023C4E9012399
:1021200087E01B2000E01A208DF800006946D6F8F1
:10213000840400F08DF860607BE0D6F8840490F8A9
:10214000A4101DE000F07AF84A692DE000F076F85E
:102150008A6929E000F072F825E000F06FF80A6A59
:1021600022E000F06BF84A6A1EE0D6F88404417958
:1021700006E000F063F84A7A0FE0D6F884040179AB
:10218000217156E000F05AF80A7A06E000F056F89D
:10219000CA6809E000F052F80A7C227149E0D6F8DA
:1021A000840400F1A401CA69626042E0DFF8DC77D0
:1021B00006F28C4038604FF4B671796007F1140074
:1021C00001F03DFE38610FF2CC700168D6F884044E
:1021D000029102A9007800F087FFB8600298F860C9
:1021E00007F11C0001F07DFBB86107F1240002F04B
:1021F000ADF9386207F12C0001F0ABFAB86207F1D3
:10220000340002F02CF83863676012E0D6F88404DA
:10221000016C61600DE0D6F8840400F5B0710A68C5
:10222000626001F08DFAA06003E0204601F0ACFA94
:1022300005462846FEBD000048400108D6F8840443
:1022400000F17C0170478DF8040001A9D8F88404DE
:10225000007800F0CDBE0000FEB5044600250CB9A4
:102260000320FEBDDFF8446396F84003810701D5E3
:102270000120FEBD2078DFF81877272800F273814F
:10228000DFE810F028002C00340038003E00450044
:1022900049004D00530059005F0065006B0071005C
:1022A000770082008C0071019300A500AE00C80089
:1022B000DB00D300E800F300F600FA00FE000201A4
:1022C000060113013401270142014901520158015D
:1022D0005C0161012079FEF755FC47E12079022875
:1022E0000DD0D6F8841481F8640140E1606801F0F3
:1022F000EEFB02E0606801F0F6FB0028F5D030E16B
:10230000D6F88414207901F17D0250702FE100F09D
:102310003EF988642BE100F03AF9C86427E160686F
:102320000028ECD00146002028E060680028E6D0B4
:102330000146012022E060680028E0D0014602202A
:102340001CE060680028DAD00146032016E06068CF
:102350000028D4D001467F2010E060680028CED04D
:10236000014680200AE060680028C8D0014681202C
:1023700004E060680028C2D00146822001F0B4FD6C
:10238000002840F0EC80F2E0D6F88414207981F83F
:102390007D00BA6D9047F86A8047E8E0D6F884047B
:1023A000217900F1B8029174E1E000F005F901280B
:1023B0004FD1606800900022D6F8840400F008F93C
:1023C000012846D100F0D9F802F1A8032AE000F074
:1023D000F3F801283DD100F0D0F802F1280321E004
:1023E00000F0EAF8012834D1D6F88424D4E90101B8
:1023F00002F1B003C3E90001D6F88404FEF796FBAE
:1024000007D190F86401002803D0F86A8047FFF7ED
:102410002AF9ACE000F0D0F801281AD100F0ADF8AC
:1024200002F13003C3E90001A1E06168D6F8840439
:10243000019101228DF8082005E06168D6F8840436
:1024400001918DF8085001A9007800F0CBFE00281A
:102450000AD186E020790028FBD01028F9DAD6F8D6
:10246000841401F18802107781E000F099F85FE0B0
:1024700000F096F8D0607AE000F092F8106176E013
:1024800000F08EF8506172E000F08AF890616EE022
:1024900000F078F80622D6F8840400F099F80128B4
:1024A0005FD100F078F8487161E000F06BF8052228
:1024B000D6F8840490F8B8108DF8021069460078B8
:1024C00000F03CFE01284CD100F065F881F8850051
:1024D0004DE000F057F80A22D6F8840400F078F8AE
:1024E00001283ED100F057F8087140E000F04AF8AA
:1024F0000922D6F8840400F06BF8012831D100F0ED
:102500004AF881F8840032E0D6F88404616881607A
:10251000C0F888102BE0D6F8841420790873D6F818
:10252000842482F88C0022E000F031F801F1B80236
:1025300090601CE000F02BF8086418E0606880B13F
:10254000FFF7EBF912E0A07901280ADC00F01FF890
:1025500001F5B0721060606801F05FFC38B11120C5
:10256000FEBD032503E0204601F010F90546FFF704
:102570005BFAFFF757FA2846FEBDD4E90101D6F809
:102580008424704794F904008DF800007047D6F851
:10259000841460687047D6F884149DF80000704772
:1025A000D6F88414606801F1880270474403002063
:1025B0003D1A00080003000194F908008DF800009E
:1025C000D6F8840400F1B8014A788DF8012007227A
:1025D0000078694600F0B2BD2DE9F04186B00446AE
:1025E00000200225ADF800000CB90320CCE0FFF775
:1025F00027FA01283ED001F0C6FE01283AD001F0AA
:10260000BEFEDFF8848328B91422002108F58A6011
:1026100002F0CCF898F88114012088F8510441F0B8
:10262000040188F88114012120788DF8040000222B
:102630008DF805108DF8072008F21446207801283F
:1026400008F2844712D004285AD0052860D0062802
:102650007DD00A2800F083800C2800F0AD800D2882
:1026600000F081800E2800F09E8080E098F84013F2
:10267000880601D5012087E0FEF75CFF3B6894F9EE
:1026800004101878002200F077FF396881F885007F
:1026900007208DF805000020FEF774FA08F5827017
:1026A000002108F10202FF230170426003724172AF
:1026B00001F027FA0146082208F5877002F05EF85B
:1026C00001F00EFA0146082208F58B7002F056F868
:1026D0000020FEF770FE054638B97868206101A831
:1026E00001F0C1FDFFF79EF94DE03B6894F904103D
:1026F0001878012200F040FF396881F8850036E043
:1027000000256946022001F025FF002852D1E4E7A8
:10271000A18870783A688DF8080002F17C00437A4D
:102720008DF80930037A8DF80A30036C0393436CFB
:102730000493ADF8141002A9107800F08FFFD8F8B8
:10274000400340F00200C8F840030025C5E7904B65
:10275000A28894F90C10A068DE6BB047EFE7002563
:1027600069460D20CFE7396891F87C0078B1786828
:10277000206101F004FE30B998F88114307001F046
:10278000FB0188F88114284606B0BDE8F081257960
:1027900005F0070000F0F3FF8DF80050012200253E
:1027A00069461020AFE76946122001F0D3FE0025EC
:1027B000002892D01325DAE78DF8071000F0D0FF3B
:1027C00028B900F0CAFF002000F0CCFFBDE70125CA
:1027D000CDE70000290A0008770A0008A50A0008CA
:1027E000E70A0008390100088D01000821020008ED
:1027F000E901000841020008311A00082DE9F84FEC
:1028000004460026002C86B00D464FF0020AB14661
:10281000B34600F08E80FFF713F9012800F0928094
:10282000DFF864818DF804601422002108F23C4036
:1028300001F0BCFF08F23C41012008F2114748704A
:102840007870217821B101290DD0032922D030E000
:10285000387083469DF8041001F01F0141F04001DB
:102860008DF804100DE08346E07B0828A8BF0820FF
:1028700038709DF8040000F01F0040F080008DF8D3
:1028800004002679A1680291A289ADF8062094F986
:102890000E900EE0387083469DF8041041F0E00180
:1028A0008DF80410616802912289ADF8062094F930
:1028B0000A90D8F884048DF810A090F8B8108DF81C
:1028C000121004A9FFF7C4FC41B24945A8BF8146D4
:1028D000BBF1000F31D0D8F8843493F87E0090B962
:1028E0008DF80C90052293F8B8008DF80E0003A91E
:1028F000187800F023FC01281BD1D8F884149DF827
:102900000C0081F88500BDF80630029A009531462A
:1029100001A8FEF771FC824668B998F88114207806
:1029200088F83C0441F0010188F88114FFF77AF837
:1029300003E0032006E00020F87008F284414868B4
:102940002061504607B0BDE8F08F00002D1A000846
:10295000351A000838B50C4DD5F8843404468DF886
:1029600000400F221878694600F0E8FB012804BFF8
:10297000D5F8840480F8C94031BD034C04F55A7081
:1029800000F064B8391A00084403002070250020C4
:1029900048400108000000009649974A002008605E
:1029A00013681847F8B5040015461E4611D03000CC
:1029B0000FD0069F00202060084600F044F86060B9
:1029C000E66000202761E57220726072A07260618B
:1029D000F2BD0120F2BD2DE9F0410446002574B39B
:1029E00000F0CAF8002804BF607A002827D1EFF36E
:1029F000108872B6804F6668386A8047B04238BF28
:102A000030462060012060722572A572794E3068D0
:102A100018B938698047204609E0B86980472168BD
:102A200040182060326813689842204602D200F0B5
:102A3000D7F801E000F0C1F888F3108800E0012524
:102A40002846BDE8F0816C494A6A1047F8B5002471
:102A5000D8B1EFF3108572B6664E3268012713467F
:102A600011468772D2B18242447211D150691472F8
:102A700018B1306000F08BF810E05F48C1688847FB
:102A800034600BE04869586108E001242046F2BD3B
:102A90008142F7D00B4649690029F9D185F31088A6
:102AA000F4E738B50446084600250CB901250DE0C9
:102AB000FFF7C9FF6060204600F05EF830B12046A5
:102AC000FFF7C4FF2046FFF786FF0546284632BDC4
:102AD000F8B5EFF3108572B6474E464F70698047E0
:102AE000316904468847041B386860B301688C422A
:102AF00034BF091B0021016040690028F6D1396804
:102B0000086828B1B069804739680A68824214D2DF
:102B10003C68606938600021217261722069E16857
:102B20008847E07A012801BFA07A00282046FFF7F5
:102B300052FF38680028E2D105E021B1087A10B9C7
:102B4000084600F024F885F31088F1BD10B52A4C32
:102B5000E0698047A16ABDE81040084770B5264D7E
:102B60000446E86980470646696A20468847AA6A9B
:102B7000301ABDE8704010471E49096800E04969F5
:102B800019B18142FBD10120704700207047F8B590
:102B9000194D0446286A8047012121720646AF6913
:102BA000B84721683018814202D2B84736182660EB
:102BB0002068A968BDE8F440084710B50D490A68C7
:102BC000536901E01A465B69516931B11C680168BB
:102BD0008C42F7D35061436110BD5061416110BD1B
:102BE000044A116809B100230B7241611060CEE7FD
:102BF00000000000D82600206C4401080EB41CB46C
:102C00000FF23811039CD1E90023CDE90023059987
:102C1000BDF810200C19BDF8181000948A1813B2D2
:102C2000B3F57A7FADF8042006DB009B5B1CA2F5B0
:102C30007A720093ADF804201CE00EB41CB40FF2BD
:102C40000411039CD1E90023CDE900230599BDF8C7
:102C50001820641ABDF8101000948A1A11B20029C5
:102C6000ADF8042006D5009B5B1E02F57A72009336
:102C7000ADF80420DDE90023C0E9002313BC03B054
:102C8000704778B504460FF2C4002B4ED0E90023FC
:102C900085B00D46CDE90123316902A8884700F0CF
:102CA00034F803A8FFF7C9FF039831688847BDF9D6
:102CB0001000B168884706B070BD0000F0B504464A
:102CC00024A01D4D2969D0E9002385B004A8CDE9D1
:102CD000032388470390E8688047ADF808006868D8
:102CE000804701901AE000001CB504461BA0124961
:102CF000D0E90023CDE9002301A80A69904700909C
:102D0000DDE90001C4E9000113BD01902A46DDE9B7
:102D1000010100910346214670470000DDE90301EF
:102D2000DDE901670091034631463A462046FFF748
:102D300065FF05B0F0BD00007C4501080000000003
:102D40000000000000000000000000000000000083
:102D50000000000000000000000000000000000073
:102D60000000000010B5DFF8744218220021204650
:102D700001F052FE4FF48062002104F1180001F0CE
:102D80004BFEDFF85C120FF251100A68BDE81040EC
:102D90001047F0B585B000F056F838BF6FF004006A
:102DA0004BD3E8680840884218BF6FF0050044D153
:102DB0006B68002B18BF002A01D000F040F80AAE63
:102DC000334622464FF4807105F5836001F0A4FE7E
:102DD000074600F0F0F8BDF80200C7196946B8B21E
:102DE00000F0BDF810F1010F23D0002105F1180CFF
:102DF0000AE001AA8BB2491CD75C0CF80070BDF840
:102E00000000401CADF800008AB2BDF80230BDF8E9
:102E100000009A42EDD3224605F1180433464FF4E0
:102E20008071204401F078FE00F0CDF800F019F830
:102E300003E000F0C8F86FF0020005B0F0BD0DF13E
:102E4000020101A818471C460023ADF80230634D6B
:102E50002B7A834270476149486070475F49087226
:102E6000704770B50026EFF3108472B65B4DE88AA8
:102E700068BB00F0A0F8698A2A8A8A4225D0A8781F
:102E800001280AD128882E80821AAA820223AB70D8
:102E900092B25AB9AA702E8200E038B9288A8842C4
:102EA00039BF091AA982C0F58060A882288A2844FF
:102EB00000F1180684F3108801F0C1FF484AA98A7E
:102EC000D36830469847064603E000F07CF884F368
:102ED0001088304670BD000038B5EFF3108472B62C
:102EE0003E4A9078022802D10021917004E0118AB4
:102EF000908A4118C1F309011182138A518A8B42C9
:102F000026D0D08A012823D1907801280BD11088AF
:102F1000C31A938202250020957010809BB25BB982
:102F20009370108200E038B9108A884239BF091ABC
:102F30009182C0F58060908284F31088918A138A10
:102F4000274C1A4402F11800E268BDE838401047E7
:102F500001F077FF84F31088BDE8314033E0F0B52D
:102F60004FF0FF32EFF3108372B61C4C258A668A4D
:102F7000AE4201D0B5420ED2C6F58066B7B2B842B5
:102F80000AD3A84213D2668A26800125A57000259F
:102F9000268A658200E0AE1BB6B2B04207D2628AD2
:102FA0000A800022618A4018C0F30900608283F31E
:102FB00010881046F0BDEFF3108072B60749CA8A38
:102FC000521CCA8206E0EFF3108072B60349CA8A27
:102FD000531ECB8280F31088704700003C0900200C
:102FE00090450108092801D801207047002070474A
:102FF000C0B2092824D8DFE800F005080B0E111430
:10300000171A1D20084601F08BBF084602F026BDA6
:10301000084603F069BA084603F094BE084604F077
:10302000DBBB084605F050B9084605F0A7BE0846C8
:1030300006F0E2BB084607F091B9084607F0E6BE85
:103040000FF2047000687047092809D8DFE800F023
:1030500005090C0F1215181B1E21084602F016B8A0
:103060007047084602F0B6BD084603F0DBBA0846D2
:1030700003F001BF084604F046BC084605F0BBB9A2
:10308000084605F014BF084606F051BC084607F094
:10309000FDB9084607F053BF092824D8DFE800F03F
:1030A00005080B0E1114171A1D20084602F006B869
:1030B000084602F0A7BD084603F0CCBA084603F064
:1030C000F3BE084604F038BC084605F0ADB9084622
:1030D00005F006BF084606F043BC084607F0EEB907
:1030E000084607F045BF7047092824D8DFE800F0FC
:1030F00005080B0E1114171A1D20084602F020B8FF
:10310000084602F0EDBD084603F0E9BA084603F0B0
:1031100018BF084604F05DBC084605F0D3B9084660
:1031200005F02BBF084606F068BC084607F036BA23
:10313000084607F061BF0020704700000B460928D1
:10314000114624D8DFE800F005080B0E1114171AF9
:103150001D20184601F0F9BF184602F0C7BD1846F9
:1031600003F0C3BA184603F0F1BE184604F036BCAB
:10317000184605F0ADB9184605F004BF184606F02C
:1031800041BC184607F010BA184607F03ABF0020B5
:1031900070470000092824D8DFE800F005080B0E6E
:1031A0001114171A1D20084601F0FFBF084602F04F
:1031B000C9BD084603F0B6BA084603F0EEBE08469D
:1031C00004F033BC084605F0AEB9084605F0F7BE7A
:1031D000084606F03BBC084607F00ABA084607F066
:1031E00037BF7047092824D8DFE800F005080B0E28
:1031F0001114171A1D20084602F016B8084602F0EE
:10320000C8BD084603F0ACBA084603F005BF08463F
:1032100004F04ABC084605F0C5B9084605F00EBFE3
:10322000084606F052BC084607F009BA084607F0FF
:103230004EBF00207047000010B500F008FA38D8E3
:10324000DFE800F0050A0F14191E23282D3220464E
:10325000BDE8104001F0FFBF2046BDE8104002F07D
:10326000C6BD2046BDE8104003F091BA2046BDE837
:10327000104003F0E8BE2046BDE8104004F02BBC2F
:103280002046BDE8104005F0A4B92046BDE8104036
:1032900005F0EBBE2046BDE8104006F02DBC2046F0
:1032A000BDE8104007F002BA2046BDE8104007F024
:1032B00025BF10BD0B460928114624D8DFE800F0D1
:1032C00005080B0E1114171A1D20184601F0FFBF38
:1032D000184602F0C2BD184603F08FBA184603F034
:1032E000EEBE184604F033BC184605F0AEB91846D9
:1032F00005F0F1BE184606F03BBC184607F00CBAC4
:10330000184607F037BF00207047000010B50C4684
:103310000928114642D8DFE800F0050B11171D23DC
:10332000292F353B2046BDE810401A4602F03EB832
:103330002046BDE810401A4602F0E4BD2046BDE834
:1033400010401A4603F0ADBA2046BDE810401A46B8
:1033500003F024BF2046BDE810401A4604F066BCC6
:103360002046BDE810401A4605F0DEB92046BDE80B
:1033700010401A4605F001BF2046BDE810401A462D
:1033800006F065BC2046BDE810401A4607F019BAA1
:103390002046BDE810401A4607F05BBF002010BD74
:1033A00038B50C4611461A46049B059D092838D8A5
:1033B000DFE800F0050A0F14191E23282D320095AE
:1033C000204602F07CF832BD0095204602F009FE4E
:1033D00032BD0095204603F0BFFA32BD009520466D
:1033E00003F065FF32BD0095204604F0A8FC32BD15
:1033F0000095204605F021FA32BD0095204605F0E3
:103400003BFF32BD0095204606F0AAFC32BD009578
:10341000204607F04BFA32BD0095204607F0A2FF88
:1034200032BD002032BD0000092824D8DFE800F0BA
:1034300005080B0E1114171A1D20084602F0E6B8F5
:10344000084602F0CFBE084603F03CBB084603F036
:10345000D5BF084604F01ABD084605F094BA0846E0
:1034600005F0B1BF084606F029BD084607F01FBBAE
:10347000084608F01DB8002070470000092824D82D
:10348000DFE800F005080B0E1114171A1D2008467E
:1034900002F0D7B8084602F0C9BE084603F02DBBBB
:1034A000084603F0C6BF084604F00BBD084605F009
:1034B00089BA084605F0A2BF084606F01ABD0846BC
:1034C00007F01FBB084608F00EB800207047000048
:1034D000092824D8DFE800F005080B0E1114171A8C
:1034E0001D20084602F0CFB8084602F0A1BE0846EB
:1034F00003F005BB084603F0BEBF084604F003BD59
:10350000084605F081BA084605F09ABF084606F05D
:1035100012BD084607F0F7BA084608F006B80020C2
:1035200070470000092824D8DFE800F005080B0EDA
:103530001114171A1D20084602F0A7B8084602F019
:1035400079BE084603F0DEBA084603F097BF084686
:1035500004F0DCBC084605F05ABA084605F073BF13
:10356000084606F0EBBC084607F0D0BA084607F05C
:10357000DFBF0020704700000B460928114624D801
:10358000DFE800F005080B0E1114171A1D2018466D
:1035900002F092B8184602F04FBE184603F0B4BAD3
:1035A000184603F082BF184604F0C7BC184605F061
:1035B00049BA184605F05EBF184606F0D6BC184654
:1035C00007F0A6BA184607F0CABF002070470000EF
:1035D00010B500F03CF838D8DFE800F0050A0F1409
:1035E000191E23282D322046BDE8104002F066B88F
:1035F0002046BDE8104002F02DBE2046BDE8104038
:1036000003F083BA2046BDE8104003F04FBF2046C8
:10361000BDE8104004F092BC2046BDE8104005F023
:1036200012BA2046BDE8104005F025BF2046BDE88F
:10363000104006F09BBC2046BDE8104007F07EBA63
:103640002046BDE8104007F08BBF092010BD0C4696
:1036500011461A46029B092870470000092824D801
:10366000DFE800F005080B0E1114171A1D2008469C
:1036700002F017B9084602F05FBE084603F0ABBA85
:10368000084603F0E5BF084604F02ABD084605F0E9
:10369000B1BA084605F0E2BF084606F039BD084653
:1036A00007F0E3BA084608F02DB8704710B50C468D
:1036B0000928114642D8DFE800F0050B11171D2339
:1036C000292F353B2046BDE810401A4602F022B9AA
:1036D0002046BDE810401A4602F04CBE2046BDE828
:1036E00010401A4603F0B6BA2046BDE810401A460C
:1036F00003F0E4BF2046BDE810401A4604F024BDA4
:103700002046BDE810401A4605F0BCBA2046BDE888
:1037100010401A4605F0E6BF2046BDE810401A46A4
:1037200006F02ABD2046BDE810401A4607F0EABA66
:103730002046BDE810401A4608F018B8C8B210BDBF
:10374000004870470003000100000000704701209E
:103750007047002101600020704770477047704734
:103760000020704770477047704700207047002066
:103770007047002070470020704700207047704756
:103780007047704702207047022070470220704740
:103790007047002070477047704700207047002036
:1037A00070477047704730B4002513E050F8042B81
:1037B000D30744BFA9F101039A18091F042942F84D
:1037C000045BFAD213468C0744BF15809B1CC907C3
:1037D00048BF1D7050F8041B0029E7D130BC70476A
:1037E00030B50022D4B2C84B04EB041423441D7C32
:1037F000854205D0521CD3B20A2BF3D3032030BD2F
:1038000003F110000860002030BD70472DE9F84139
:10381000CBB006460D001ABF529C002C02209046E9
:103820001F462BD005A807F0E1FF69463846FFF791
:10383000D7FF070021D10098411C05A807F0E7FF3A
:1038400026B11022314605A807F0E6FF4246294678
:1038500005A807F0E1FF05A901A808F03AF801A8BA
:1038600082789DF80710120442EA016241789DF8BF
:10387000040042EA01220243226038464CB0BDE80F
:10388000F0817CB50446A04DA049AA2205F11000A4
:1038900000F074FF69460020FFF7A2FF694601208F
:1038A000FFF79EFF69460320FFF79AFF6946022053
:1038B000FFF796FF2000964E08BF964C34602846CE
:1038C00001F05AFA30688047002076BD80B50100CB
:1038D00005D0BA228C4800F051FF002002BD022022
:1038E00002BDBA210160FCE07FB50C0008BF0220D8
:1038F0000BD00021844A01EB0113D5182E7C86429F
:1039000005D0491C0A29F6D3032004B070BD8028D5
:103910007F4E14D16846102108F066F86B467F226E
:103920001021204600F034F804461022694605F1C3
:10393000110000F023FF306880472046E5E71022A1
:10394000214605F1110000F019FF30688047002082
:10395000DBE71CB57F2B01DB032016BD049C009424
:10396000FFF754FF16BD3EB5144608B902203EBD10
:1039700001AA009200250A46014601950020FFF7A2
:1039800045FF010003D101998C4218BF01203EBDC3
:103990002DE9F04104001D4614BF002D0220BEB0E9
:1039A0000E46174628D0C90806EB11721209B6EB6D
:1039B000021018BF05201FD1F022002101A800F03D
:1039C000F5FE69463846FFF70BFF5FEA000812D1A3
:1039D000009801AA1021401C08F0E8F9002707E030
:1039E00001AAE919E01908F055FA1037FFB2103EA4
:1039F000B0B20028F4D140463EB0BDE8F0817FB5BA
:103A00000D0014461E4608BF02201AD0F0B27F28CF
:103A100004D1E0B2042818BF032012D16846102157
:103A200007F0E2FF6B46E2B210212846FFF7B0FF35
:103A3000010006D16946F0B2FFF756FF010008BF4A
:103A4000002004B070BDF8B51E001CBF079C002C00
:103A500001D0089D0DB90220F2BD069F222F01DB87
:103A60000520F2BD3A463146204600F087FE791E19
:103A7000631C012289B2701CFFF78AFF08B107207E
:103A8000F2BDE07AC009287014D1E019012310F8C2
:103A9000042D41788578C07842EA012242EA054245
:103AA00042EA0062391F89B22046FFF75CFF10B17D
:103AB0000120F2BD0420F2BD10B5040001D10220A6
:103AC00010BD1548416988472060002010BD80B5B1
:103AD00008B9022002BD014608220B480AE0000096
:103AE00000BF0948704780B508B9022002BD0146F1
:103AF00008220A4800F042FE054801688847002075
:103B000002BD06487047000048020020A03E0108A0
:103B1000D42600200B38000848400108500200203D
:103B20002DE9F84F050088B08846914608BF0A2065
:103B30004BD0139EDDF848B01F4604A800F016F9DC
:103B400000F013F9390A380C8DF806708DF807105B
:103B50008DF808008DF80A604FF0010A3F0E300A18
:103B6000310C360E00248DF800A08DF805B08DF8CC
:103B700009708DF80B008DF80C108DF80D6003E0C6
:103B80001034A8F11008E4B20FFA88F6012E1BDBFE
:103B90008DF80FA004AB4A4610216846FFF7F8FEE7
:103BA0000AF1010A70B904AB102ED4BF31461021BE
:103BB0008842E5DA01191F5C6A5C7A406A54401C4D
:103BC000C0B2F1E70F2000E0002009B0BDE8F08F9F
:103BD00078B5079909B90A2072BD069C059A49254E
:103BE0000D704B718A71130A8C72CB710026150C03
:103BF000120E4A72C8734E708E70CE700E710D72B6
:103C0000220A230C240E4C738E73CA720B7300208D
:103C100072BDF0B587B0040016461ABF0F9D002D87
:103C20000A200F461A461BD040F201118F42A8BF4E
:103C30000E2015DA0E990D9801910DF10C0C0090E3
:103C4000CDF808C031460C9B3846FFF7C1FF009500
:103C500033463A46214603A8FFF77BFE00B10F200A
:103C600007B0F0BD2DE9F04F0400C7B00D469246F5
:103C70009B4608BF0A202BD040F201118D42A8BFFD
:103C80000E2025DADDF84C91529E519FDDF84081DF
:103C90004FF48872002103A800F088FD03A8029069
:103CA0000196009743465A4651462846FFF790FF33
:103CB0002A46214607A800F061FD103553464A46C2
:103CC000A9B203A8FFF74FFE00281CBF01280F2050
:103CD00047B0BDE8F08F10B5DFF8F8341C7800224B
:103CE000844204D103EB82000860002010BD1C79DF
:103CF00001228442F6D00C2010BDF8B50C00154608
:103D000018BF002D84B007461E4600D00EB90A2009
:103D100029E000F02AF8022F02D0032F20D021E062
:103D200001208DF80000032221460DF1010000F072
:103D300025FD0322294601A800F020FD022231467C
:103D40000DF1070000F01AFDDFF88C04046820680C
:103D50003B4601226946FFF752FE20B10F2002E0E8
:103D60000220DEE70B2005B0F0BD6846102107F009
:103D70003BBE000009B90A207047401E032823D823
:103D8000DFE800F0020C141CDFF84C040068026944
:103D90000A6000F11001016200207047DFF838046A
:103DA000006842690A6000F11401F4E7DFF82804B2
:103DB000006882690A6000F11801ECE7DFF8180476
:103DC0000268D3690B60E7E705207047704710B5BC
:103DD000DFF8044404F108012160010008BFDFF8A6
:103DE000FC0360602422002104F1080000F0DEFCE6
:103DF00020680121C1708170417000220270C26090
:103E00004FF0FF3100F118020161416181610262EE
:103E1000C16160688047002010BDDFF8BC130A68EC
:103E200010600020704780B5010006D02422DFF822
:103E3000B00300F0A3FC002002BD0A2002BD242133
:103E40000160DFF89C03704708B90A207047DFF86B
:103E500088130A68D3685B1C0360002070477CB538
:103E60000E46002115461C4600910CB90A2076BD6D
:103E70006946FFF77FFF01002AD1009810F1010F7A
:103E800011D080B2281A002803DD00994018206064
:103E90000AE0009802D12060072076BD000C05EBF7
:103EA000004505F580352560DFF82C130A68907809
:103EB00068B92268009800230021101A63EB010101
:103EC000994204DB01DCB04201D3082076BD00201A
:103ED00076BD08B90A207047DFF8FC120A6802F1C3
:103EE0001C0303620020704710B50446FFF7FCFC7A
:103EF00038B944B900F042F918B9042000F056F975
:103F000008B10F2010BD002010BD3EB5040001D146
:103F10000A203EBD0020019001A8DFF8BC52FFF747
:103F2000CBFD29680198888068688047296888885F
:103F3000E082204600F0C3FC78B904F1180000903C
:103F40000123216813220020FFF703FD08B10F2091
:103F50003EBD204600F0B3FC00B111203EBDF0B5DF
:103F600007460D46140014BF002D0A208DB047D01F
:103F700004A8242107F038FD00268DF80C6003A961
:103F8000954E029104AA019231682079009038463A
:103F90000A7923682946FFF756FD08B10F202FE064
:103FA0002279206804A900F0E9FB204600F0F8F926
:103FB00008B1102024E000F0E1F8010020D1042035
:103FC00000F0F4F801001BD100F01CF80320FFF70B
:103FD00094FE010014D100F015F80220FFF78DFEC9
:103FE00001000DD130689DF80C10817000224FF057
:103FF000FF31C260816101614161706880470020CA
:104000000DB0F0BD3068031D04F10902A11D704719
:104010007FB506461C4603220CB90A2038E06E4DD7
:104020002868C1688E4238BF062031D394F820003A
:1040300000B90222B1420AD2002001960090A36882
:1040400094F82810606AFFF76BFD010020D120462C
:1040500000F06BFCA8B904F12C000390029600223A
:10406000A1680191009200232079011F206802229B
:1040700089B2FFF7CEFD01000AD1204600F055FCC1
:1040800008B1112004E02868C660696888470020EC
:1040900004B070BD2DE9F84785B006460E9C8946F0
:1040A0001F460CB90A2066E00020009015466946BC
:1040B0002846FFF75FFEB8B90098B84202D310F166
:1040C000010F11D1204600F0BFF978B904A930469C
:1040D000FFF701FE01004ED1049890F80180A0681E
:1040E000814505D0022046E0062044E0102042E051
:1040F000394E3168237B88785B0903F0010300B9EE
:10410000002304F1280A049ADAF80400039001213C
:104110000297CDF80490009120799278011F2068D1
:1041200089B2FFF79FFD010025D194F8200008B95E
:104130004FF002080120019700904B469AF80010BA
:10414000606A4246FFF7ECFC010014D16D1E032D9E
:104150000ED8DFE805F00B0805023068C76107E0FC
:1041600031688F6104E03068476101E031680F61B8
:1041700070688047002006B0BDE8F087F8B508B148
:104180000B2011E0FFF7F1FD134800688178012949
:1041900004BF20228DF80020006804230022694615
:1041A000FFF72DFC00B10F2005B000BD1FB504289E
:1041B00018BF0B200BD1FFF7D8FD07480468206813
:1041C0007F2304226946FFF71AFC00B10F2004B0D8
:1041D00010BD0000400200200C260020CD3D00084C
:1041E0001426002001466D48806A00F110029142B9
:1041F00018BF081D704770B50446084667498D6AA8
:10420000297D61B1002602E0FFF7ECFF761C2A7DD4
:10421000F1B2914203D20178A142F5D170BD0020E4
:1042200070BD38B55D4DA861002028750C46AD62A3
:10423000ED612D621422FF21284600F0B7FAA86A2A
:10424000012242756C6231BD80B5010005D0162295
:10425000524800F093FA012002BD002002BD162151
:1042600001604E48704738B54C4CA26A117D052953
:1042700001DB002032BD216A03780B7000234578F2
:104280004D70C078C8708B70107D401C107508464A
:10429000FFF7A8FF2062012032BD10B53F4CA16A94
:1042A000087D30B1401E0875E069FFF79BFFE061B3
:1042B000012010BD10B5394B9A6A04460846117D9D
:1042C00039B11A6AD969FFF796FF10B1012144701C
:1042D000817010BD80B5314B9A6A117D31B11A6A77
:1042E000D969FFF788FF08B1407802BD012002BDFF
:1042F00038B52A4DA96A0446E8694C75097D49B16B
:10430000C178447009B901228270FFF76BFF296AF6
:104310008842F5D131BD80B520490A6AC969FFF7E5
:104320006AFF00B1012002BD2DE9FC411B4D06468C
:10433000A86A90F814800027F8B240451DDAE869B1
:1043400001783170427872708478012C09D001783C
:104350008DF8001042788DF80120C0788DF80300A8
:1043600003E0A9698A6830469047FFF796FF14B9C1
:104370006846FFF778FF7F1CDEE7BDE8F38107485A
:10438000816A087D70470548816A087D052801DB40
:10439000012070470020704700000000E025002049
:1043A00038B504001CBF2068002801D1022032BDAE
:1043B0000078607103222368591CA01D00F0DEF90B
:1043C0002068011D032204F1090000F0D7F92068DC
:1043D000C179E160027A41EA0221E160427A41EA70
:1043E0000241E160827A41EA0261E160C07A2074B0
:1043F0002168087B2179607411390D2010291FD1A3
:10440000206800F10D01102204F1120000F0B6F94D
:104410001D2021680A5C6262401C83B2401CCD5C96
:1044200042EA052283B26262401CCD5C42EA054248
:1044300080B26262085C42EA00626262002032BDC1
:104440000129E6DB012032BD38B504001CBF20681D
:10445000002801D1022032BD0078607120684178C7
:10446000A160827841EA0221A160C27841EA02415A
:10447000A160027941EA0261A1604079207320685D
:104480008179E181C27941EA0221227BE18102F056
:104490000F02102A37DA00F1080104F1100000F0D1
:1044A0006DF9002104F12805207B84F82010297083
:1044B00000F00F000830217982B28B1A1B1F012BEC
:1044C0000DDB23689A5C84F82020401C091A0A1F1F
:1044D00080B22A701918606AD2B200F04FF92068D1
:1044E00021790144081F01786960427841EA02217C
:1044F0006960827841EA02416960C07841EA0061FE
:104500006960002032BD012032BD00007B48006898
:10451000002818BF0047704738B50446784DFC2284
:104520000021284600F042F90022002073492A6049
:1045300068600C6032BD80B5010005D0FC22704877
:1045400000F01CF9002002BD012002BDFC21016029
:104550006B487047F8B50446154609B90120F2BD0D
:104560000022674E06F10800130600EB13574FF0C8
:10457000000C1FFA8CF0385C38BB0CF1010C1FFAF0
:104580008CF01028F5D3306800B93760706800B13E
:1045900007600020386077603C71BD60AAB2781D6A
:1045A00000F0ECF8641F02D0E41E022C01D80120B8
:1045B00000E0002038736D1CD6F8F8002D18C6F8FE
:1045C000F850FFF7A3FF0020F2BD521CD0B20F2815
:1045D000C8D10220F2BD10B508B9012010BD484A6B
:1045E0001168884206D041B10B68834218BF194652
:1045F000F9D102E00368136000215468844208BFC7
:10460000516009B103680B6000210160D2F8F830F5
:1046100081685B1A5B1EC2F8F8301022002100F09E
:10462000C5F80CE010B53648006800E0204630B10F
:10463000017B0468002908BFFFF7CDFFF6E7FFF70D
:1046400065FF002010BD10B52D48006800280AE065
:10465000FFF7C1FF06E001790468491FF8D0C91EC1
:104660000229F5D92000F6D1E9E708B90120704701
:104670002349D1F8F8200260002070472DE9F0416D
:10468000804616461E48046800270D46002E18BFB7
:10469000002D0FD101201EE02079F0557F1CA2686B
:1046A000FFB292B2611DF01900F068F8A0682468AA
:1046B000C719FFB25CB1A168A8EB0700491C88428A
:1046C000EAD226682046FFF786FF3400F9D1284653
:1046D000FFF7CBFF0020BDE8F08108B9012070474B
:1046E000074909680022027000E0096821B10A7BCD
:1046F000012AFAD10121017000207047D026002044
:10470000FC1C002001460020891E112915D8DFE875
:1047100001F009110B110F0D0B0B1114140D1414D2
:104720000F111313032070470220704706207047B3
:104730000120704705207047042070470D4908602C
:10474000704770B50B4A0C4D146843F2390305FBF2
:10475000043414606FF00046B4FBF6F66FF00042CC
:10476000091A02FB1644491C94FBF1F501FB1541A3
:10477000401870BD3C0300206D4EC64103E011F8A7
:10478000013B00F8013B13465A1E9BB2002BF6D1A9
:1047900070471044401E03E011F8013B00F8013956
:1047A00013465A1E9BB2002BF6D17047130003D05C
:1047B0000A46194607F098BB704700004AB100004E
:1047C00011F8013B521E00F8013B1CBF11F8013BE0
:1047D000F8E7704700280AD0B0FA80F18840D1F19C
:1047E0009D01C905020672F1004241EB102070479D
:1047F0002DE9F84F074684B01E4697F910B097F997
:104800001190B86830608846797900240129924671
:1048100045D102208DF800006946BA7C8DF802204F
:10482000F87CFEF7E5FB45B25D45A8BFAB46AB455E
:1048300008BF346033D0B889B968FA89814228BF8B
:104840000124101881422AD308218DF800106946EE
:10485000F87CFEF7CDFB8146B868F989B0FBF1F230
:1048600001FB120001281AD122218DF800108DF8C9
:1048700001B06946B87C8DF80200F87CFEF7B8FB01
:10488000834640B2A84202BF00243879012806D1ED
:1048900002218DF80C1002A9F87CFEF7FDFB88F8C8
:1048A00000B08AF80090204605B0BDE8F08F10B542
:1048B000847814B9BDE810409AE7002010BD10B507
:1048C00004001CBF2068002801D1012010BD2179FF
:1048D000162901DC022010BD6379037008222068CC
:1048E000A11D401CFFF755FF2068082204F10E01AE
:1048F0000930FFF74EFF2168E08A48742168E08A9A
:10490000000A88742168A069C8742168A069000A37
:1049100008752168A069000C48752168A069000E1F
:10492000887517202071002010BD70B504001CBFD1
:104930002168002901D1012070BD227B04F12805E6
:1049400002F00F022878083200B1521C10182379A7
:10495000001D80B2834201D2022070BD60790870D0
:104960002268A1685170A0682168000A88702168D7
:10497000A068000CC8702168A068000E087121684A
:10498000207B48712168E08988712168E089000AEC
:10499000C87104F11001227B206802F00F02083078
:1049A000FFF7ECFE267B287806F00F06083628B1C4
:1049B000216894F82000B2B2761C8854B3B2206803
:1049C0002A78616A1844FFF7D9FE297823686A6853
:1049D000701886B2401C9A5583B269682268090A29
:1049E00000F009F8090C00F006F8090ED154401C3B
:1049F0002071002070BDD154401C6968226883B2C8
:104A0000704703E011F8013B00F8013B13465A1EC2
:104A10009BB2002BF6D17047130003D00A4619460B
:104A200007F062BA704700002DE9F04391B0884664
:104A30001A9D38496E0648BF28319E1E232E28BF76
:104A400000201CD2EE074CBF30242024AE07189F54
:104A500048BF002A4FF0000E03D54FF02D0E5242F2
:104A60007F1E4FF0000C62BB30218DF800104FF01C
:104A7000010C33E02023521E00F8013B36D111B067
:104A8000BDE8F0833023521E00F8013BF7D00B46FF
:104A9000591E9C45F6DB61460029A1F1010C06DD9B
:104AA0001DF80C1000F8011B521EF4D1E7E739463F
:104AB0004F1E0029E3DD2021521E00F8011BF6D114
:104AC000DDE79146B9FBF3F203FB1299002A11F8D6
:104AD00009600DF80C600CF1010CF2D119998C45AC
:104AE000A8BF61467F1AEB07424603D43B465F1ED0
:104AF000002BBFDCBEF1000F03D0521E00F801EB0B
:104B0000BDD03B465F1E002BC1DD521E00F8014B9D
:104B1000F7D1B4E7F44101082DE9F84F002984B03A
:104B2000D8BF002040F38B8003900446A1F1010917
:104B30001546984611E0601A48450DDB58F8042BDD
:104B400002964FF0FF300190611A0097A9EB010126
:104B50002046FFF769FF04466D1C03992878621A06
:104B600008B94A4568DB4A4566DA252802D004F8C8
:104B7000010BF1E715F8010F0026302808BF0126C8
:104B800030380A284FF0FF370BD2002705E015F820
:104B9000012B0A2000FB0727303F287830380A28ED
:104BA000F5D328780A2358283FD063281BD06428DF
:104BB00018BF69283DD073281BD07528BED078282F
:104BC00035D025281CBF252004F8010B601A484564
:104BD000B4DA2878002814BF04F8010B6D1EAAE788
:104BE000202004F8010B7F1E002FF9DC58F8040B7D
:104BF000BDE758F8046B06B912A6304607F07EF9F7
:104C00008246BA45A7EB0A0B05DA20225946204610
:104C100007F06AF95C4400205045BEBF16F8011B3E
:104C200004F8011B401CF7DB96E746F04006102312
:104C300084E746F0020681E700202070104605B0A8
:104C4000BDE8F08F3C4E554C4C3E00006A4981B0A7
:104C50000A6802430A60096808400090009801B0A1
:104C6000704718B5654C85B0206820F4004020607E
:104C7000FDF792FE6846142106F0B6FE0120FFF70C
:104C8000E5FF0220FFF7E2FF0420FFF7DFFF8020AF
:104C9000FFF7DCFF032000210190029149F6FF722B
:104CA000009269464FF0904007F032F94FF6FF70DE
:104CB00000906946524807F02BF96946514807F0C1
:104CC00027F96946504807F023F9606C4008400016
:104CD0006064606C20F002006064606C20F004008E
:104CE0006064606C20F08000606407F037FAFEF7C3
:104CF00039F80FF22110FEF7AEF844494FF40040A6
:104D0000086007F051FA0220FEF7A8F807F07CFAD5
:104D100007F024FB07F024FB0121012007F032FB00
:104D200006B010BD07F042BB1CB507F0A3FA002483
:104D300040F6B931884228BFFE240AD2B0F5E16FAF
:104D400007DBA0F5E160FE2148434FF49662B0FB1B
:104D5000F2F4E0B20090012244A300210220FEF709
:104D600018F8E0B216BD80B507F052FAC11100EB99
:104D700011600002000C02BD38B5044624480168E9
:104D800011F1010F15D107F044FB054607F047FB71
:104D9000451907F041FB290E2A0CE171A271290A7D
:104DA000020E6171E270010C020A2571A17062703D
:104DB0000EE0E1710A0A0B0C090E2171A2716371F8
:104DC0004168E1704068000AA070010A6170000C3F
:104DD000207031BD10B50E48046814F1010F08D1E0
:104DE00007F017FB044607F017FB444007F017FBDA
:104DF0004440204610BD00004C00005808000058F8
:104E00000004004800080048001C004810400058FA
:104E10008075FF1F3EB504460D4601A8FDF74EFF05
:104E2000BDF90800DDF8043013A2009010212046DF
:104E300000F00BF8204607F061F8288037BD01210B
:104E400000E00021022007F090BA08B400B501ABE1
:104E5000FFF762FE5DF808FB0020704707F068BBB3
:104E600081B001B4009802B007F07FBB56444441C2
:104E70003D2025640D0A0000256473253033643A13
:104E80000000000088420CBF0846401E40B2704738
:104E900010B5DFF84C1A0A6A0446904738B1DFF8BB
:104EA000440ADFF8441A04198C428041C00F10BD37
:104EB000F8B50A460FF69C210FF6A025DFF82C3A2C
:104EC00084B00C56064655F82610994206D0DFF8F5
:104ED000203A99420CBF0221002100E00121DFF8B5
:104EE000003A5D6A07280DD1D2B202920120002655
:104EF00005274FF47A72039001960097002312FB66
:104F000004F208E0D2B202920123002201920820AA
:104F10000393009022461846A84705B0F0BD000054
:104F20001CB50FF67821DFF8CC390A680FF65C2142
:104F300000920478DFF8C029641E382C00F2A480A7
:104F4000DFE804F01D20A2A2A265A260A2A02F317A
:104F5000333BA045484B4E51545760626567696CBE
:104F6000A16E70727524A2A2A2A2A2A2A2A2A2A263
:104F7000A2A2A2827884A2A28284A2868C00C07897
:104F800010B93FE08078E8B302227CE090F901207C
:104F900083780BB9002100E002211046FFF772FF71
:104FA0006BE040216CE020226DE090F901208078D8
:104FB00058B90FF6C8118A5C65E090F90120807835
:104FC00018B90FF6C011885C57E0895C58E040F6CC
:104FD000B83155E04FF47A7255E04FF4FA614FE082
:104FE00041F288324FE041F2707149E04FF4804263
:104FF00049E04FF47A71DFF80409FFF7A2FB00F5EE
:10500000FA603AE000213BE0DFF8F4283BE00221BF
:1050100036E0D43237E002F1D60131E0102232E03E
:1050200005212DE005222EE0DFF8D81828E0DFF872
:10503000D82828E011218DF80010022200218DF8D7
:1050400001208DF802101FE000931DE0032117E0FE
:1050500090F901000FF6FC02115C11E00FF6FC0262
:1050600090F9010052F82010DFF88028914206D014
:10507000DFF87C28914205D10220009004E0012154
:10508000009101E000220092009816BD00F10C0191
:10509000F8B5D1E900670097427881680078DFF8B9
:1050A00058580C2460432C183346667A1420464323
:1050B000354405F1C00007F07CFBF1BD2DE9F84156
:1050C00085B0074668460FF67001DFF82C581422A9
:1050D000FFF774FB3879032805F1D60605F1D404EF
:1050E0002BD8DFE800F002161F241422694605F1D0
:1050F000C000FFF743FB0FF6A8000FF6B00790E8DB
:105100000E000EC597E8005185E80051032060802D
:1051100002E000206860286101223146204607F045
:1051200039FB0AE0218860880143218005E0396865
:1051300019B1D8222846FFF721FB06B0BDE8F0815F
:10514000D8210160DFF8B007704780B5034651B140
:1051500005290CD0062913D0072913D0092918BF17
:105160000A2918D01FE01868BDE8024090E6997837
:1051700093F9000000291ABF0522022105220DE043
:10518000052209E0597893F9000000291ABF052289
:105190000221052202E007220021585607F0BFFA3B
:1051A00010B1012002BD002002BD70B586B00446DA
:1051B00050208DF80C002079102802BF2168C87B90
:1051C00000282FD10025022620682844017801916B
:1051D0000A46417842EA012201926421837842EA38
:1051E00003424A4301920022029206E00728EBDBC9
:1051F000002001908DF80C000290019838B101A9AF
:1052000004918DF8146004A800F0E4FA04E08DF82D
:105210000060684600F02EFB761CF0B2ED1C0F28F3
:10522000EDB2E3DD06B070BD10B50479DFF8C83625
:1052300014B1012C08D00CE00168012203F1D40064
:1052400007F0A8FA012010BD0168012203F1D60081
:10525000F6E7002010BDFEB51E460528A8BF0520B4
:1052600070700C460FF2F46096F90110DFF87C368E
:10527000154650F821209A4206D0DFF874369A423B
:105280000CBF0221002100E0012196F90120B1703C
:10529000072A03D1322007F056FB06E050F822100F
:1052A0000FF2B060805C07F046FB0746DFF830067F
:1052B000C16D884706F1080306F10C0200930192C4
:1052C00003462A462146384607F03FFBF7BD2DE945
:1052D000F0470446DFF8087678688AB094F90160F0
:1052E000D4F804808946804708B100205BE0E07C68
:1052F00050B921780C204143DFF8FC0550F80180BB
:10530000021D505800B180460FF2486010F906A007
:10531000F96840468847A068D7F818C0A17C072ED6
:1053200018D1002509910895079506950121059149
:105330000495039580B202904FF47A71DFF8CC3572
:105340000093052011FB0AFA0190002352464CF20B
:10535000503110E00125099180B208950022079292
:105360000692059202900492082003920190009206
:105370000123A17852461846E047617C7A6D0129E5
:1053800007BF0FF20060815D0FF2F051895D0D31B2
:10539000C9B228469047E07C3246414607F0ACFB54
:1053A00089F8006001200AB0BDE8F0872DE9F04FD0
:1053B00006468BB0924696F901200FF29850DFF81E
:1053C000384583560A938B46307896F902800C2133
:1053D0004843211814204B7A4343E01890F9C20047
:1053E0008045B8BF80460FF2745050F82210DFF8A5
:1053F000FC24914206D0DFF8F82491420CBF02272A
:10540000002700E00127B2687168DFF8D4944046B5
:1054100007F0B9FA8DF824000C2031784143605828
:10542000D9F80C10884796F90100D9F81CC0072854
:1054300015D14FF47A6000250890079506950595DB
:105440000120049003950522029201954FF47A7091
:105450000A99414300913B4646F2A81210E04FF4EE
:105460007A60002101250890079106910591049525
:1054700008220391029201953B460A98009000226F
:105480009DF924102846E047327896F901100C2047
:105490004243A05807F050FBB18996F90100FFF78D
:1054A00007FDCAF800002846B189D9F85420C9B2CE
:1054B00090478BF8008001200BB0BDE8F08F2DE9FC
:1054C000F84791460FF2844204468846D2E900012B
:1054D0008DB00026CDE901019A460727ADF800609E
:1054E000DFF8145401E0B8B90627207A86422FDA93
:1054F000606801A9801907F0C0F948B39DF807302A
:105500008619BDF80800ADF80000002BF6B24FF088
:10551000070EE8D0981FE7D1002701220C20BA40DF
:105520007843062B07D1285868B1BDF80000024324
:10553000ADF8002007E0BDF80010114203D0285854
:1055400008B90EF0FE0E7F1C102FE6DB7746CCE785
:1055500002208DF82C000BA8617A8DF82E10FFF731
:10556000DFFC8DF810701023A17A8DF811109DF8D2
:1055700005108DF812109DF806108DF813109DF887
:1055800004108DF81410E17A8DF81510217B8DF838
:105590001610072194F90D208DF817208DF818307A
:1055A0000522CDF81CD08DF820008DF8212009951A
:1055B0008DF8281000228DF8292001AB2168039175
:1055C0000DF106020DF1050103A807F077F9044675
:1055D000072C09D10222002105F1D400FFF7E6F8DB
:1055E000BDF80000A5F8D40016989DF8051088F8BD
:1055F00000109DF8062089F800209DF804108AF814
:105600000010067020460EB0BDE8F08738B504469D
:1056100007256068FFF73CFC00B90625002105223C
:10562000605607F07CF808B905F0FD0594F9010013
:105630000722002107F073F808B905F0FB0528469A
:1056400032BD1FB502681168032439B901798DF89C
:105650000010684600F00EF990B910E00192007950
:105660008DF8080001A800F0B5F848B1042802D070
:10567000052802D003E0022402E0012400E0002417
:10568000204604B010BD0020704738B504460325FD
:105690006068FFF7FDFB00B9022522780C214A4320
:1056A0009549885808B905F0FD05032D02D16068B9
:1056B000091D8850284632BD022070472DE9F04769
:1056C00094B005460020ADF80800894690461C4677
:1056D00010A8102106F088F9874F07F1D40601229F
:1056E0000021304607F03DF828B9B7F8D40040F063
:1056F0000300A7F8D40007F1C002687A8DF80C0007
:1057000005F10C03297A8DF80D10049606921021EC
:10571000ADF81C1003220597ADF81E200122296860
:10572000089168680990A97A8DF828108DF82920C9
:10573000D3E90001CDE90B01287D8DF83400E98A19
:1057400095F90800FFF7B4FB03A90DF109020E90CB
:105750000F910092CDF8048002AB10AA214608A850
:1057600007F085F901002AD19DF80810491E002094
:10577000FEF7E7FFC6B21025DFF864814FF00C0C8E
:1057800010A8D8F810A0845D9DF8081005236FF0CC
:105790004F02701C90FBF1F601FB160620461CFB25
:1057A00000F05B493858D0470128F6B203D06D1E8F
:1057B000E4D10D200BE089F80040002007E00C2820
:1057C00005D1B7F8D41041F00301A7F8D41014B0F4
:1057D000BDE8F087F8B5054600272E790024012E94
:1057E00024DD102E01DB0320F2BD00F03DF843F371
:1057F000030006F094FF00B9012700F035F843F3E9
:10580000031006F08CFF00B90127286890F90810F2
:10581000006841F3031241F303018A42B8BF012734
:10582000FFF736FB00B90124274201D00620F2BD64
:105830000FB10520F2BD0CB10420F2BD0C202E4C9E
:10584000296810FB06F027180C223846FEF796FF51
:10585000002078720120B4F8D41000FA06F60E4346
:10586000A4F8D4600020F2BD286890F90830052221
:105870000021704770B501780A46022A01DA00203B
:1058800070BD0C201C4B42439818002400250026B4
:1058900080E87000BDE87040102203F1D40006F0EB
:1058A00046BF38B504460C202178134A41435318AB
:1058B00014205D7A4543501990F9C23094F90200E2
:1058C0005558A26861689842B8BF184607F05BF85F
:1058D000A289034BDC6B01462846A04731BD00007E
:1058E0004840010840C220C981B92A0090D0030075
:1058F00020A1070040F70937EC1E002018FCFFFF2D
:1059000000EA0637000050419A9909408545010098
:10591000400D0300002301281EA0805608BF02236B
:105920000A1A9A4204DB062AACBF0521091A00E0D4
:105930001946C8B270470000640000000000000073
:105940000000000000000000000000000000000057
:10595000000000000C0B0A090807073248E80100A4
:1059600048E8010048E8010048E8010048E8010073
:1059700048E8010090D00300000000003333337387
:10598000F2F2F2F233333373DEDEDEDE00000B358B
:105990007DF2F2F2000102030405FFFE00000000A8
:1059A00000EA0637000000005000000040F7093709
:1059B0000000000050000000884208BF084603D0E5
:1059C00008280CBF0620401E40B2704710B5DFF813
:1059D000C4190A6A04469047C8B1DFF8BC09DFF869
:1059E000BC290019904208D2DFF8B439DFF8B019A9
:1059F000B0FBF3F301FB130008B1002010BDDFF88A
:105A0000A409DFF8A41904198C428041C00F10BD0D
:105A10007FB50FF6F012DFF89449125654F82000C3
:105A2000DFF88C39984206D0DFF8883998420CBFED
:105A30000220002000E0012001240394C9B20025C7
:105A4000029101950826DFF84C49656A00960146E7
:105A500001230120A84704B070BD00001CB50FF65B
:105A6000F411DFF83C390A68DFF84C190092047829
:105A7000DFF84829641E382C00F2AA80DFE804F021
:105A80001D20A8A8A824A831A8A633353743A64FBF
:105A90005255585B5E61A6A7846A6D70A4A3A67276
:105AA0007526A8A8A8A8A8A8A8A8A8A8A8A8A8864D
:105AB00078848284868A8A8C9200C07810B963E0E8
:105AC000807870B1022282E002217DE090F901200D
:105AD00083780BB9002100E002211046FFF76CFF2C
